00100200         214259348000102002970204001417019  0351220000000365270 ACD-AUTENTICA CERTIFICADO DIGIBANCO DO BRASIL S.A.                    12017032400000000002000000000                                                                     
00100201R01  000 2014259348000102002970204001417019  0351220000000365270 ACD-AUTENTICA CERTIFICADO DIGI                                                                                000000202017032400000000                                 
0010020300211P 010351220000000365270029702040000000000   710021335           1002201700000000003000000000 99N070220173000000000000000000000000000000000000000000000000000000000000000000000000000001335                     3000000090000000000 
0010020300211Q 011000009335437948Karine Liara da Cunha                                                                          0000 00 Cidade         UF0000000000000000                                        000                            
0010020300212P 010351220000000365270029702040000000000   710021336           2602201700000000003400000000 99N070220173000000000000000000000000000000000000000000000000000000000000000000000000000001336                     3000000090000000000 
0010020300212Q 012025345918000101Apoio Total                                                                                    0000 00 Cidade         UF0000000000000000                                        000                            
1112222344444T677888889000000000000ASCCCCCCCCCCCCCCCCCCCCDEEEEEEEEEEEEEEEFFFFFFFFGGGGGGGGGGGGGGGHHHIIIIIJKKKKKKKKKKKKKKKKKKKKKKKKKLLMNNNNNNNNNNNNNNNOOOOOOOOOOOOOOOOOOOOOOOOOOOOOOOOOOOOOOOOPPPPPPPPPPQQQQQQQQQQQQQQQRRRRRRRRRRSSSSSSSSSSSSSSSSS
1112222344444U677888888888888888999999999999999000000000000000AAAAAAAAAAAAAAABBBBBBBBBBBBBBBCCCCCCCCCCCCCCCDDDDDDDDDDDDDDDEEEEEEEEEEEEEEEFFFFFFFFGGGGGGGGHHHHIIIIIIIIJJJJJJJJJJJJJJJKKKKKKKKKKKKKKKKKKKKKKKKKKKKKKLLLMMMMMMMMMMMMMMMMMMMMNNNNNNN
00100205         000426                                                                                                                                                                                                                         
00100209         000001000428000000                                                                                                                                                                                                             
